{
  "_format": "hh-sol-artifact-1",
  "contractName": "BackupContract",
  "sourceName": "contracts/BackupContract.sol",
  "abi": [
    {
      "anonymous": false,
      "inputs": [
        {
          "indexed": true,
          "internalType": "string",
          "name": "fileId",
          "type": "string"
        },
        {
          "indexed": false,
          "internalType": "string",
          "name": "ipfsHash",
          "type": "string"
        },
        {
          "indexed": false,
          "internalType": "uint256",
          "name": "version",
          "type": "uint256"
        },
        {
          "indexed": true,
          "internalType": "address",
          "name": "owner",
          "type": "address"
        }
      ],
      "name": "BackupStored",
      "type": "event"
    },
    {
      "inputs": [
        {
          "internalType": "string",
          "name": "fileId",
          "type": "string"
        },
        {
          "internalType": "uint256",
          "name": "version",
          "type": "uint256"
        }
      ],
      "name": "getBackup",
      "outputs": [
        {
          "internalType": "string",
          "name": "",
          "type": "string"
        },
        {
          "internalType": "uint256",
          "name": "",
          "type": "uint256"
        },
        {
          "internalType": "address",
          "name": "",
          "type": "address"
        }
      ],
      "stateMutability": "view",
      "type": "function"
    },
    {
      "inputs": [
        {
          "internalType": "string",
          "name": "fileId",
          "type": "string"
        }
      ],
      "name": "getVersionCount",
      "outputs": [
        {
          "internalType": "uint256",
          "name": "",
          "type": "uint256"
        }
      ],
      "stateMutability": "view",
      "type": "function"
    },
    {
      "inputs": [
        {
          "internalType": "string",
          "name": "fileId",
          "type": "string"
        },
        {
          "internalType": "string",
          "name": "ipfsHash",
          "type": "string"
        }
      ],
      "name": "storeBackup",
      "outputs": [],
      "stateMutability": "nonpayable",
      "type": "function"
    }
  ],
  "bytecode": "0x608060405234801561001057600080fd5b5061075a806100206000396000f3fe608060405234801561001057600080fd5b50600436106100415760003560e01c8063223c3bb9146100465780636730fa121461006c578063fd3a44a61461008e575b600080fd5b6100596100543660046103f7565b6100a3565b6040519081526020015b60405180910390f35b61007f61007a366004610434565b6100ca565b604051610063939291906104c9565b6100a161009c3660046104fc565b610247565b005b600080826040516100b49190610560565b9081526040519081900360200190205492915050565b60606000806000856040516100df9190610560565b9081526040519081900360200190205484106101335760405162461bcd60e51b815260206004820152600f60248201526e24b73b30b634b2103b32b939b4b7b760891b604482015260640160405180910390fd5b600080866040516101449190610560565b908152602001604051809103902085815481106101635761016361057c565b906000526020600020906003020160405180606001604052908160008201805461018c90610592565b80601f01602080910402602001604051908101604052809291908181526020018280546101b890610592565b80156102055780601f106101da57610100808354040283529160200191610205565b820191906000526020600020905b8154815290600101906020018083116101e857829003601f168201915b505050918352505060018201546020808301919091526002909201546001600160a01b0316604091820152825191830151920151909891975095509350505050565b6000826040516102579190610560565b9081526040805191829003602090810183206060840183528484524284830152339284019290925281546001810183556000928352912082516003909202019081906102a3908261061b565b5060208201516001820155604091820151600290910180546001600160a01b0319166001600160a01b039092169190911790555133906102e4908490610560565b60405180910390207f18a4ea3fd1d771b3fe81605eb7476d43a1549326962946bb40102e24d08b82ba8360016000876040516103209190610560565b9081526040519081900360200190205461033a91906106db565b604051610348929190610702565b60405180910390a35050565b634e487b7160e01b600052604160045260246000fd5b600082601f83011261037b57600080fd5b813567ffffffffffffffff8082111561039657610396610354565b604051601f8301601f19908116603f011681019082821181831017156103be576103be610354565b816040528381528660208588010111156103d757600080fd5b836020870160208301376000602085830101528094505050505092915050565b60006020828403121561040957600080fd5b813567ffffffffffffffff81111561042057600080fd5b61042c8482850161036a565b949350505050565b6000806040838503121561044757600080fd5b823567ffffffffffffffff81111561045e57600080fd5b61046a8582860161036a565b95602094909401359450505050565b60005b8381101561049457818101518382015260200161047c565b50506000910152565b600081518084526104b5816020860160208601610479565b601f01601f19169290920160200192915050565b6060815260006104dc606083018661049d565b6020830194909452506001600160a01b0391909116604090910152919050565b6000806040838503121561050f57600080fd5b823567ffffffffffffffff8082111561052757600080fd5b6105338683870161036a565b9350602085013591508082111561054957600080fd5b506105568582860161036a565b9150509250929050565b60008251610572818460208701610479565b9190910192915050565b634e487b7160e01b600052603260045260246000fd5b600181811c908216806105a657607f821691505b6020821081036105c657634e487b7160e01b600052602260045260246000fd5b50919050565b601f82111561061657600081815260208120601f850160051c810160208610156105f35750805b601f850160051c820191505b81811015610612578281556001016105ff565b5050505b505050565b815167ffffffffffffffff81111561063557610635610354565b610649816106438454610592565b846105cc565b602080601f83116001811461067e57600084156106665750858301515b600019600386901b1c1916600185901b178555610612565b600085815260208120601f198616915b828110156106ad5788860151825594840194600190910190840161068e565b50858210156106cb5787850151600019600388901b60f8161c191681555b5050505050600190811b01905550565b818103818111156106fc57634e487b7160e01b600052601160045260246000fd5b92915050565b604081526000610715604083018561049d565b9050826020830152939250505056fea2646970667358221220b2619563d63fb6d98752083ce7783996373b6a9ffa08692751b3f707e227109364736f6c63430008150033",
  "linkReferences": {},
  "deployedLinkReferences": {}
}