{
  "_format": "hh-sol-artifact-1",
  "contractName": "BackupContract",
  "sourceName": "contracts/BackupContract.sol",
  "abi": [
    {
      "anonymous": false,
      "inputs": [
        {
          "indexed": true,
          "internalType": "string",
          "name": "fileId",
          "type": "string"
        },
        {
          "indexed": false,
          "internalType": "string",
          "name": "ipfsHash",
          "type": "string"
        },
        {
          "indexed": false,
          "internalType": "uint256",
          "name": "version",
          "type": "uint256"
        },
        {
          "indexed": true,
          "internalType": "address",
          "name": "owner",
          "type": "address"
        },
        {
          "indexed": false,
          "internalType": "bytes32",
          "name": "fileHash",
          "type": "bytes32"
        }
      ],
      "name": "BackupStored",
      "type": "event"
    },
    {
      "inputs": [
        {
          "internalType": "string",
          "name": "fileId",
          "type": "string"
        },
        {
          "internalType": "uint256",
          "name": "version",
          "type": "uint256"
        }
      ],
      "name": "getBackup",
      "outputs": [
        {
          "internalType": "string",
          "name": "",
          "type": "string"
        },
        {
          "internalType": "uint256",
          "name": "",
          "type": "uint256"
        },
        {
          "internalType": "address",
          "name": "",
          "type": "address"
        },
        {
          "internalType": "bytes32",
          "name": "",
          "type": "bytes32"
        }
      ],
      "stateMutability": "view",
      "type": "function"
    },
    {
      "inputs": [
        {
          "internalType": "string",
          "name": "fileId",
          "type": "string"
        }
      ],
      "name": "getVersionCount",
      "outputs": [
        {
          "internalType": "uint256",
          "name": "",
          "type": "uint256"
        }
      ],
      "stateMutability": "view",
      "type": "function"
    },
    {
      "inputs": [
        {
          "internalType": "string",
          "name": "fileId",
          "type": "string"
        },
        {
          "internalType": "string",
          "name": "ipfsHash",
          "type": "string"
        },
        {
          "internalType": "bytes32",
          "name": "fileHash",
          "type": "bytes32"
        }
      ],
      "name": "storeBackup",
      "outputs": [],
      "stateMutability": "nonpayable",
      "type": "function"
    }
  ],
  "bytecode": "0x608060405234801561001057600080fd5b5061079a806100206000396000f3fe608060405234801561001057600080fd5b50600436106100415760003560e01c8063223c3bb9146100465780634debe8c51461006c5780636730fa1214610081575b600080fd5b610059610054366004610426565b6100a4565b6040519081526020015b60405180910390f35b61007f61007a366004610463565b6100cb565b005b61009461008f3660046104d0565b6101ed565b6040516100639493929190610565565b600080826040516100b5919061059d565b9081526040519081900360200190205492915050565b6000836040516100db919061059d565b9081526040805191829003602090810183206080840183528584524284830152339284019290925260608301849052815460018101835560009283529120825160049092020190819061012e9082610642565b50602082015160018201556040808301516002830180546001600160a01b0319166001600160a01b0390921691909117905560609092015160039091015551339061017a90859061059d565b60405180910390207fb48ec00625a9b1075f187bb687ac2069a641fadd7d184a57fc5a283b07c2bc818460016000886040516101b6919061059d565b908152604051908190036020019020546101d09190610702565b856040516101e093929190610729565b60405180910390a3505050565b606060008060008086604051610203919061059d565b9081526040519081900360200190205485106102575760405162461bcd60e51b815260206004820152600f60248201526e24b73b30b634b2103b32b939b4b7b760891b604482015260640160405180910390fd5b60008087604051610268919061059d565b908152602001604051809103902086815481106102875761028761074e565b90600052602060002090600402016040518060800160405290816000820180546102b0906105b9565b80601f01602080910402602001604051908101604052809291908181526020018280546102dc906105b9565b80156103295780601f106102fe57610100808354040283529160200191610329565b820191906000526020600020905b81548152906001019060200180831161030c57829003601f168201915b5050509183525050600182015460208083019190915260028301546001600160a01b0316604080840191909152600390930154606092830152835190840151928401519390910151909a9199509197509095509350505050565b634e487b7160e01b600052604160045260246000fd5b600082601f8301126103aa57600080fd5b813567ffffffffffffffff808211156103c5576103c5610383565b604051601f8301601f19908116603f011681019082821181831017156103ed576103ed610383565b8160405283815286602085880101111561040657600080fd5b836020870160208301376000602085830101528094505050505092915050565b60006020828403121561043857600080fd5b813567ffffffffffffffff81111561044f57600080fd5b61045b84828501610399565b949350505050565b60008060006060848603121561047857600080fd5b833567ffffffffffffffff8082111561049057600080fd5b61049c87838801610399565b945060208601359150808211156104b257600080fd5b506104bf86828701610399565b925050604084013590509250925092565b600080604083850312156104e357600080fd5b823567ffffffffffffffff8111156104fa57600080fd5b61050685828601610399565b95602094909401359450505050565b60005b83811015610530578181015183820152602001610518565b50506000910152565b60008151808452610551816020860160208601610515565b601f01601f19169290920160200192915050565b6080815260006105786080830187610539565b6020830195909552506001600160a01b03929092166040830152606090910152919050565b600082516105af818460208701610515565b9190910192915050565b600181811c908216806105cd57607f821691505b6020821081036105ed57634e487b7160e01b600052602260045260246000fd5b50919050565b601f82111561063d57600081815260208120601f850160051c8101602086101561061a5750805b601f850160051c820191505b8181101561063957828155600101610626565b5050505b505050565b815167ffffffffffffffff81111561065c5761065c610383565b6106708161066a84546105b9565b846105f3565b602080601f8311600181146106a5576000841561068d5750858301515b600019600386901b1c1916600185901b178555610639565b600085815260208120601f198616915b828110156106d4578886015182559484019460019091019084016106b5565b50858210156106f25787850151600019600388901b60f8161c191681555b5050505050600190811b01905550565b8181038181111561072357634e487b7160e01b600052601160045260246000fd5b92915050565b60608152600061073c6060830186610539565b60208301949094525060400152919050565b634e487b7160e01b600052603260045260246000fdfea2646970667358221220b2a3156791e71929beaefe63c544b5561c8f23e9289d02326cabca020865d27664736f6c63430008150033",
  "linkReferences": {},
  "deployedLinkReferences": {}
}